{
  "contractName": "Sparkle",
  "abi": [
    {
      "inputs": [],
      "payable": false,
      "stateMutability": "nonpayable",
      "type": "constructor"
    },
    {
      "anonymous": false,
      "inputs": [
        {
          "indexed": true,
          "internalType": "address",
          "name": "owner",
          "type": "address"
        },
        {
          "indexed": true,
          "internalType": "address",
          "name": "spender",
          "type": "address"
        },
        {
          "indexed": false,
          "internalType": "uint256",
          "name": "value",
          "type": "uint256"
        }
      ],
      "name": "Approval",
      "type": "event"
    },
    {
      "anonymous": false,
      "inputs": [
        {
          "indexed": false,
          "internalType": "address",
          "name": "to",
          "type": "address"
        },
        {
          "indexed": false,
          "internalType": "uint256",
          "name": "amount",
          "type": "uint256"
        }
      ],
      "name": "Mint",
      "type": "event"
    },
    {
      "anonymous": false,
      "inputs": [
        {
          "indexed": false,
          "internalType": "address",
          "name": "from",
          "type": "address"
        },
        {
          "indexed": false,
          "internalType": "uint256",
          "name": "amount",
          "type": "uint256"
        }
      ],
      "name": "Sell",
      "type": "event"
    },
    {
      "anonymous": false,
      "inputs": [
        {
          "indexed": false,
          "internalType": "address",
          "name": "from",
          "type": "address"
        },
        {
          "indexed": false,
          "internalType": "uint256",
          "name": "amount",
          "type": "uint256"
        }
      ],
      "name": "SparkleRedistribution",
      "type": "event"
    },
    {
      "anonymous": false,
      "inputs": [
        {
          "indexed": true,
          "internalType": "address",
          "name": "from",
          "type": "address"
        },
        {
          "indexed": true,
          "internalType": "address",
          "name": "to",
          "type": "address"
        },
        {
          "indexed": false,
          "internalType": "uint256",
          "name": "value",
          "type": "uint256"
        }
      ],
      "name": "Transfer",
      "type": "event"
    },
    {
      "payable": true,
      "stateMutability": "payable",
      "type": "fallback"
    },
    {
      "constant": true,
      "inputs": [],
      "name": "COST_PER_TOKEN",
      "outputs": [
        {
          "internalType": "uint256",
          "name": "",
          "type": "uint256"
        }
      ],
      "payable": false,
      "stateMutability": "view",
      "type": "function"
    },
    {
      "constant": true,
      "inputs": [],
      "name": "MAX_SUPPLY",
      "outputs": [
        {
          "internalType": "uint256",
          "name": "",
          "type": "uint256"
        }
      ],
      "payable": false,
      "stateMutability": "view",
      "type": "function"
    },
    {
      "constant": true,
      "inputs": [],
      "name": "PERCENT",
      "outputs": [
        {
          "internalType": "uint256",
          "name": "",
          "type": "uint256"
        }
      ],
      "payable": false,
      "stateMutability": "view",
      "type": "function"
    },
    {
      "constant": true,
      "inputs": [],
      "name": "TAX",
      "outputs": [
        {
          "internalType": "uint256",
          "name": "",
          "type": "uint256"
        }
      ],
      "payable": false,
      "stateMutability": "view",
      "type": "function"
    },
    {
      "constant": true,
      "inputs": [],
      "name": "decimals",
      "outputs": [
        {
          "internalType": "uint8",
          "name": "",
          "type": "uint8"
        }
      ],
      "payable": false,
      "stateMutability": "view",
      "type": "function"
    },
    {
      "constant": true,
      "inputs": [],
      "name": "name",
      "outputs": [
        {
          "internalType": "string",
          "name": "",
          "type": "string"
        }
      ],
      "payable": false,
      "stateMutability": "view",
      "type": "function"
    },
    {
      "constant": true,
      "inputs": [],
      "name": "symbol",
      "outputs": [
        {
          "internalType": "string",
          "name": "",
          "type": "string"
        }
      ],
      "payable": false,
      "stateMutability": "view",
      "type": "function"
    },
    {
      "constant": true,
      "inputs": [],
      "name": "totalSupply",
      "outputs": [
        {
          "internalType": "uint256",
          "name": "",
          "type": "uint256"
        }
      ],
      "payable": false,
      "stateMutability": "view",
      "type": "function"
    },
    {
      "constant": true,
      "inputs": [],
      "name": "tobinsCollected",
      "outputs": [
        {
          "internalType": "uint256",
          "name": "",
          "type": "uint256"
        }
      ],
      "payable": false,
      "stateMutability": "view",
      "type": "function"
    },
    {
      "constant": true,
      "inputs": [
        {
          "internalType": "address",
          "name": "owner",
          "type": "address"
        }
      ],
      "name": "balanceOf",
      "outputs": [
        {
          "internalType": "uint256",
          "name": "",
          "type": "uint256"
        }
      ],
      "payable": false,
      "stateMutability": "view",
      "type": "function"
    },
    {
      "constant": true,
      "inputs": [
        {
          "internalType": "address",
          "name": "owner",
          "type": "address"
        },
        {
          "internalType": "address",
          "name": "spender",
          "type": "address"
        }
      ],
      "name": "allowance",
      "outputs": [
        {
          "internalType": "uint256",
          "name": "",
          "type": "uint256"
        }
      ],
      "payable": false,
      "stateMutability": "view",
      "type": "function"
    },
    {
      "constant": false,
      "inputs": [
        {
          "internalType": "address",
          "name": "to",
          "type": "address"
        },
        {
          "internalType": "uint256",
          "name": "value",
          "type": "uint256"
        }
      ],
      "name": "transfer",
      "outputs": [
        {
          "internalType": "bool",
          "name": "",
          "type": "bool"
        }
      ],
      "payable": false,
      "stateMutability": "nonpayable",
      "type": "function"
    },
    {
      "constant": false,
      "inputs": [
        {
          "internalType": "address",
          "name": "from",
          "type": "address"
        },
        {
          "internalType": "address",
          "name": "to",
          "type": "address"
        },
        {
          "internalType": "uint256",
          "name": "value",
          "type": "uint256"
        }
      ],
      "name": "transferFrom",
      "outputs": [
        {
          "internalType": "bool",
          "name": "",
          "type": "bool"
        }
      ],
      "payable": false,
      "stateMutability": "nonpayable",
      "type": "function"
    },
    {
      "constant": false,
      "inputs": [
        {
          "internalType": "address",
          "name": "spender",
          "type": "address"
        },
        {
          "internalType": "uint256",
          "name": "value",
          "type": "uint256"
        }
      ],
      "name": "approve",
      "outputs": [
        {
          "internalType": "bool",
          "name": "",
          "type": "bool"
        }
      ],
      "payable": false,
      "stateMutability": "nonpayable",
      "type": "function"
    },
    {
      "constant": false,
      "inputs": [
        {
          "internalType": "address",
          "name": "spender",
          "type": "address"
        },
        {
          "internalType": "uint256",
          "name": "addedValue",
          "type": "uint256"
        }
      ],
      "name": "increaseAllowance",
      "outputs": [
        {
          "internalType": "bool",
          "name": "",
          "type": "bool"
        }
      ],
      "payable": false,
      "stateMutability": "nonpayable",
      "type": "function"
    },
    {
      "constant": false,
      "inputs": [
        {
          "internalType": "address",
          "name": "spender",
          "type": "address"
        },
        {
          "internalType": "uint256",
          "name": "subtractedValue",
          "type": "uint256"
        }
      ],
      "name": "decreaseAllowance",
      "outputs": [
        {
          "internalType": "bool",
          "name": "",
          "type": "bool"
        }
      ],
      "payable": false,
      "stateMutability": "nonpayable",
      "type": "function"
    },
    {
      "constant": false,
      "inputs": [],
      "name": "mintSparkle",
      "outputs": [
        {
          "internalType": "bool",
          "name": "",
          "type": "bool"
        }
      ],
      "payable": true,
      "stateMutability": "payable",
      "type": "function"
    },
    {
      "constant": false,
      "inputs": [
        {
          "internalType": "uint256",
          "name": "amount",
          "type": "uint256"
        }
      ],
      "name": "sellSparkle",
      "outputs": [
        {
          "internalType": "bool",
          "name": "",
          "type": "bool"
        }
      ],
      "payable": false,
      "stateMutability": "nonpayable",
      "type": "function"
    }
  ],
  "bytecode": "0x6080604052734c3cc1d2229cbd17d26ec984f2e1b9bd336cbf69600560006101000a81548173ffffffffffffffffffffffffffffffffffffffff021916908373ffffffffffffffffffffffffffffffffffffffff1602179055503480156200006657600080fd5b506040518060400160405280600881526020017f537061726b6c65210000000000000000000000000000000000000000000000008152506040518060400160405280600481526020017f5350524b0000000000000000000000000000000000000000000000000000000081525060128260009080519060200190620000ed9291906200012b565b508160019080519060200190620001069291906200012b565b5080600260006101000a81548160ff021916908360ff160217905550505050620001da565b828054600181600116156101000203166002900490600052602060002090601f016020900481019282601f106200016e57805160ff19168380011785556200019f565b828001600101855582156200019f579182015b828111156200019e57825182559160200191906001019062000181565b5b509050620001ae9190620001b2565b5090565b620001d791905b80821115620001d3576000816000905550600101620001b9565b5090565b90565b6120cf80620001ea6000396000f3fe6080604052600436106101095760003560e01c806370a0823111610095578063a9059cbb11610064578063a9059cbb1461058d578063ab8f893914610600578063b85a8b2014610622578063dd62ed3e1461064d578063e1ee4e4e146106d257610109565b806370a08231146103fa5780638d3c971d1461045f57806395d89b411461048a578063a457c2d71461051a57610109565b8063313ce567116100dc578063313ce567146102d557806332cb6b0c1461030657806339509351146103315780635359def3146103a457806368f58b03146103cf57610109565b806306fdde0314610114578063095ea7b3146101a457806318160ddd1461021757806323b872dd14610242575b610111610725565b50005b34801561012057600080fd5b50610129610ace565b6040518080602001828103825283818151815260200191508051906020019080838360005b8381101561016957808201518184015260208101905061014e565b50505050905090810190601f1680156101965780820380516001836020036101000a031916815260200191505b509250505060405180910390f35b3480156101b057600080fd5b506101fd600480360360408110156101c757600080fd5b81019080803573ffffffffffffffffffffffffffffffffffffffff16906020019092919080359060200190929190505050610b70565b604051808215151515815260200191505060405180910390f35b34801561022357600080fd5b5061022c610c9b565b6040518082815260200191505060405180910390f35b34801561024e57600080fd5b506102bb6004803603606081101561026557600080fd5b81019080803573ffffffffffffffffffffffffffffffffffffffff169060200190929190803573ffffffffffffffffffffffffffffffffffffffff16906020019092919080359060200190929190505050610ca5565b604051808215151515815260200191505060405180910390f35b3480156102e157600080fd5b506102ea6110f5565b604051808260ff1660ff16815260200191505060405180910390f35b34801561031257600080fd5b5061031b61110c565b6040518082815260200191505060405180910390f35b34801561033d57600080fd5b5061038a6004803603604081101561035457600080fd5b81019080803573ffffffffffffffffffffffffffffffffffffffff1690602001909291908035906020019092919050505061111c565b604051808215151515815260200191505060405180910390f35b3480156103b057600080fd5b506103b9611351565b6040518082815260200191505060405180910390f35b3480156103db57600080fd5b506103e461135b565b6040518082815260200191505060405180910390f35b34801561040657600080fd5b506104496004803603602081101561041d57600080fd5b81019080803573ffffffffffffffffffffffffffffffffffffffff169060200190929190505050611360565b6040518082815260200191505060405180910390f35b34801561046b57600080fd5b506104746114ad565b6040518082815260200191505060405180910390f35b34801561049657600080fd5b5061049f6114b7565b6040518080602001828103825283818151815260200191508051906020019080838360005b838110156104df5780820151818401526020810190506104c4565b50505050905090810190601f16801561050c5780820380516001836020036101000a031916815260200191505b509250505060405180910390f35b34801561052657600080fd5b506105736004803603604081101561053d57600080fd5b81019080803573ffffffffffffffffffffffffffffffffffffffff16906020019092919080359060200190929190505050611559565b604051808215151515815260200191505060405180910390f35b34801561059957600080fd5b506105e6600480360360408110156105b057600080fd5b81019080803573ffffffffffffffffffffffffffffffffffffffff1690602001909291908035906020019092919050505061178e565b604051808215151515815260200191505060405180910390f35b610608610725565b604051808215151515815260200191505060405180910390f35b34801561062e57600080fd5b50610637611a44565b6040518082815260200191505060405180910390f35b34801561065957600080fd5b506106bc6004803603604081101561067057600080fd5b81019080803573ffffffffffffffffffffffffffffffffffffffff169060200190929190803573ffffffffffffffffffffffffffffffffffffffff169060200190929190505050611a49565b6040518082815260200191505060405180910390f35b3480156106de57600080fd5b5061070b600480360360208110156106f557600080fd5b8101908080359060200190929190505050611ad0565b604051808215151515815260200191505060405180910390f35b60008061075b655af3107a400061074d670de0b6b3a764000034611d5190919063ffffffff16565b611dd790919063ffffffff16565b90506b014adf4b7320334b9000000061077f82600754611e2190919063ffffffff16565b111561078a57600080fd5b60006107b360646107a5600285611d5190919063ffffffff16565b611dd790919063ffffffff16565b905060006107de60646107d0600186611d5190919063ffffffff16565b611dd790919063ffffffff16565b90506000610807826107f98587611ea990919063ffffffff16565b611ea990919063ffffffff16565b90506108248161081633611360565b611e2190919063ffffffff16565b600360003373ffffffffffffffffffffffffffffffffffffffff1673ffffffffffffffffffffffffffffffffffffffff168152602001908152602001600020819055506108a482610896600560009054906101000a900473ffffffffffffffffffffffffffffffffffffffff16611360565b611e2190919063ffffffff16565b60036000600560009054906101000a900473ffffffffffffffffffffffffffffffffffffffff1673ffffffffffffffffffffffffffffffffffffffff1673ffffffffffffffffffffffffffffffffffffffff1681526020019081526020016000208190555061091e84600754611e2190919063ffffffff16565b600781905550600654600860003373ffffffffffffffffffffffffffffffffffffffff1673ffffffffffffffffffffffffffffffffffffffff1681526020019081526020016000208190555060065460086000600560009054906101000a900473ffffffffffffffffffffffffffffffffffffffff1673ffffffffffffffffffffffffffffffffffffffff1673ffffffffffffffffffffffffffffffffffffffff168152602001908152602001600020819055506109e783600654611e2190919063ffffffff16565b6006819055507f0f6798a560793a54c3bcfe86a93cde1e73087d944c0ea20544137d41213968853382604051808373ffffffffffffffffffffffffffffffffffffffff1673ffffffffffffffffffffffffffffffffffffffff1681526020018281526020019250505060405180910390a17fec47f18d3fc9f028ccb9747e39ff0325aba5fd61a28a89d44291f021132aa3be3384604051808373ffffffffffffffffffffffffffffffffffffffff1673ffffffffffffffffffffffffffffffffffffffff1681526020018281526020019250505060405180910390a1600194505050505090565b606060008054600181600116156101000203166002900480601f016020809104026020016040519081016040528092919081815260200182805460018160011615610100020316600290048015610b665780601f10610b3b57610100808354040283529160200191610b66565b820191906000526020600020905b815481529060010190602001808311610b4957829003601f168201915b5050505050905090565b60008073ffffffffffffffffffffffffffffffffffffffff168373ffffffffffffffffffffffffffffffffffffffff161415610bab57600080fd5b81600460003373ffffffffffffffffffffffffffffffffffffffff1673ffffffffffffffffffffffffffffffffffffffff16815260200190815260200160002060008573ffffffffffffffffffffffffffffffffffffffff1673ffffffffffffffffffffffffffffffffffffffff168152602001908152602001600020819055508273ffffffffffffffffffffffffffffffffffffffff163373ffffffffffffffffffffffffffffffffffffffff167f8c5be1e5ebec7d5bd14f71427d1e84f3dd0314c0f7b2291e5b200ac8c7c3b925846040518082815260200191505060405180910390a36001905092915050565b6000600754905090565b6000600460008573ffffffffffffffffffffffffffffffffffffffff1673ffffffffffffffffffffffffffffffffffffffff16815260200190815260200160002060003373ffffffffffffffffffffffffffffffffffffffff1673ffffffffffffffffffffffffffffffffffffffff16815260200190815260200160002054821115610d3057600080fd5b600073ffffffffffffffffffffffffffffffffffffffff168373ffffffffffffffffffffffffffffffffffffffff161415610d6a57600080fd5b6000610d936064610d85600286611d5190919063ffffffff16565b611dd790919063ffffffff16565b9050610dc281610db485610da689611360565b611ea990919063ffffffff16565b611ea990919063ffffffff16565b600360008773ffffffffffffffffffffffffffffffffffffffff1673ffffffffffffffffffffffffffffffffffffffff16815260200190815260200160002081905550610e2083610e1286611360565b611e2190919063ffffffff16565b600360008673ffffffffffffffffffffffffffffffffffffffff1673ffffffffffffffffffffffffffffffffffffffff16815260200190815260200160002081905550600654600860008773ffffffffffffffffffffffffffffffffffffffff1673ffffffffffffffffffffffffffffffffffffffff16815260200190815260200160002081905550600654600860008673ffffffffffffffffffffffffffffffffffffffff1673ffffffffffffffffffffffffffffffffffffffff16815260200190815260200160002081905550610f0481600654611e2190919063ffffffff16565b600681905550610f9983600460008873ffffffffffffffffffffffffffffffffffffffff1673ffffffffffffffffffffffffffffffffffffffff16815260200190815260200160002060003373ffffffffffffffffffffffffffffffffffffffff1673ffffffffffffffffffffffffffffffffffffffff16815260200190815260200160002054611ea990919063ffffffff16565b600460008773ffffffffffffffffffffffffffffffffffffffff1673ffffffffffffffffffffffffffffffffffffffff16815260200190815260200160002060003373ffffffffffffffffffffffffffffffffffffffff1673ffffffffffffffffffffffffffffffffffffffff168152602001908152602001600020819055508373ffffffffffffffffffffffffffffffffffffffff168573ffffffffffffffffffffffffffffffffffffffff167fddf252ad1be2c89b69c2b068fc378daa952ba7f163c4a11628f55a4df523b3ef856040518082815260200191505060405180910390a37fec47f18d3fc9f028ccb9747e39ff0325aba5fd61a28a89d44291f021132aa3be8582604051808373ffffffffffffffffffffffffffffffffffffffff1673ffffffffffffffffffffffffffffffffffffffff1681526020018281526020019250505060405180910390a160019150509392505050565b6000600260009054906101000a900460ff16905090565b6b014adf4b7320334b9000000081565b60008073ffffffffffffffffffffffffffffffffffffffff168373ffffffffffffffffffffffffffffffffffffffff16141561115757600080fd5b6111e682600460003373ffffffffffffffffffffffffffffffffffffffff1673ffffffffffffffffffffffffffffffffffffffff16815260200190815260200160002060008673ffffffffffffffffffffffffffffffffffffffff1673ffffffffffffffffffffffffffffffffffffffff16815260200190815260200160002054611e2190919063ffffffff16565b600460003373ffffffffffffffffffffffffffffffffffffffff1673ffffffffffffffffffffffffffffffffffffffff16815260200190815260200160002060008573ffffffffffffffffffffffffffffffffffffffff1673ffffffffffffffffffffffffffffffffffffffff168152602001908152602001600020819055508273ffffffffffffffffffffffffffffffffffffffff163373ffffffffffffffffffffffffffffffffffffffff167f8c5be1e5ebec7d5bd14f71427d1e84f3dd0314c0f7b2291e5b200ac8c7c3b925600460003373ffffffffffffffffffffffffffffffffffffffff1673ffffffffffffffffffffffffffffffffffffffff16815260200190815260200160002060008773ffffffffffffffffffffffffffffffffffffffff1673ffffffffffffffffffffffffffffffffffffffff168152602001908152602001600020546040518082815260200191505060405180910390a36001905092915050565b6000600654905090565b600281565b600080600754141561137557600090506114a8565b60006113cb600860008573ffffffffffffffffffffffffffffffffffffffff1673ffffffffffffffffffffffffffffffffffffffff16815260200190815260200160002054600654611ea990919063ffffffff16565b905060006113e6600654600754611ea990919063ffffffff16565b9050600061144e8261144085600360008a73ffffffffffffffffffffffffffffffffffffffff1673ffffffffffffffffffffffffffffffffffffffff16815260200190815260200160002054611d5190919063ffffffff16565b611dd790919063ffffffff16565b90506114a281600360008873ffffffffffffffffffffffffffffffffffffffff1673ffffffffffffffffffffffffffffffffffffffff16815260200190815260200160002054611e2190919063ffffffff16565b93505050505b919050565b655af3107a400081565b606060018054600181600116156101000203166002900480601f01602080910402602001604051908101604052809291908181526020018280546001816001161561010002031660029004801561154f5780601f106115245761010080835404028352916020019161154f565b820191906000526020600020905b81548152906001019060200180831161153257829003601f168201915b5050505050905090565b60008073ffffffffffffffffffffffffffffffffffffffff168373ffffffffffffffffffffffffffffffffffffffff16141561159457600080fd5b61162382600460003373ffffffffffffffffffffffffffffffffffffffff1673ffffffffffffffffffffffffffffffffffffffff16815260200190815260200160002060008673ffffffffffffffffffffffffffffffffffffffff1673ffffffffffffffffffffffffffffffffffffffff16815260200190815260200160002054611ea990919063ffffffff16565b600460003373ffffffffffffffffffffffffffffffffffffffff1673ffffffffffffffffffffffffffffffffffffffff16815260200190815260200160002060008573ffffffffffffffffffffffffffffffffffffffff1673ffffffffffffffffffffffffffffffffffffffff168152602001908152602001600020819055508273ffffffffffffffffffffffffffffffffffffffff163373ffffffffffffffffffffffffffffffffffffffff167f8c5be1e5ebec7d5bd14f71427d1e84f3dd0314c0f7b2291e5b200ac8c7c3b925600460003373ffffffffffffffffffffffffffffffffffffffff1673ffffffffffffffffffffffffffffffffffffffff16815260200190815260200160002060008773ffffffffffffffffffffffffffffffffffffffff1673ffffffffffffffffffffffffffffffffffffffff168152602001908152602001600020546040518082815260200191505060405180910390a36001905092915050565b60008073ffffffffffffffffffffffffffffffffffffffff168373ffffffffffffffffffffffffffffffffffffffff1614156117c957600080fd5b60006117f260646117e4600286611d5190919063ffffffff16565b611dd790919063ffffffff16565b9050611821816118138561180533611360565b611ea990919063ffffffff16565b611ea990919063ffffffff16565b600360003373ffffffffffffffffffffffffffffffffffffffff1673ffffffffffffffffffffffffffffffffffffffff1681526020019081526020016000208190555061187f8361187186611360565b611e2190919063ffffffff16565b600360008673ffffffffffffffffffffffffffffffffffffffff1673ffffffffffffffffffffffffffffffffffffffff16815260200190815260200160002081905550600654600860003373ffffffffffffffffffffffffffffffffffffffff1673ffffffffffffffffffffffffffffffffffffffff16815260200190815260200160002081905550600654600860008673ffffffffffffffffffffffffffffffffffffffff1673ffffffffffffffffffffffffffffffffffffffff1681526020019081526020016000208190555061196381600654611e2190919063ffffffff16565b6006819055508373ffffffffffffffffffffffffffffffffffffffff163373ffffffffffffffffffffffffffffffffffffffff167fddf252ad1be2c89b69c2b068fc378daa952ba7f163c4a11628f55a4df523b3ef856040518082815260200191505060405180910390a37fec47f18d3fc9f028ccb9747e39ff0325aba5fd61a28a89d44291f021132aa3be3382604051808373ffffffffffffffffffffffffffffffffffffffff1673ffffffffffffffffffffffffffffffffffffffff1681526020018281526020019250505060405180910390a1600191505092915050565b606481565b6000600460008473ffffffffffffffffffffffffffffffffffffffff1673ffffffffffffffffffffffffffffffffffffffff16815260200190815260200160002060008373ffffffffffffffffffffffffffffffffffffffff1673ffffffffffffffffffffffffffffffffffffffff16815260200190815260200160002054905092915050565b60008082118015611ae9575081611ae633611360565b10155b611af257600080fd5b6000611b27670de0b6b3a7640000611b19655af3107a400086611d5190919063ffffffff16565b611dd790919063ffffffff16565b90506000611b526064611b44600385611d5190919063ffffffff16565b611dd790919063ffffffff16565b90506000611b698284611ea990919063ffffffff16565b9050611b8685611b7833611360565b611ea990919063ffffffff16565b600360003373ffffffffffffffffffffffffffffffffffffffff1673ffffffffffffffffffffffffffffffffffffffff16815260200190815260200160002081905550600654600860003373ffffffffffffffffffffffffffffffffffffffff1673ffffffffffffffffffffffffffffffffffffffff16815260200190815260200160002081905550611c2485600754611ea990919063ffffffff16565b600781905550600560009054906101000a900473ffffffffffffffffffffffffffffffffffffffff1673ffffffffffffffffffffffffffffffffffffffff166108fc839081150290604051600060405180830381858888f19350505050158015611c92573d6000803e3d6000fd5b503373ffffffffffffffffffffffffffffffffffffffff166108fc829081150290604051600060405180830381858888f19350505050158015611cd9573d6000803e3d6000fd5b507f5e5e995ce3133561afceaa51a9a154d5db228cd7525d34df5185582c18d3df093386604051808373ffffffffffffffffffffffffffffffffffffffff1673ffffffffffffffffffffffffffffffffffffffff1681526020018281526020019250505060405180910390a160019350505050919050565b600080831415611d645760009050611dd1565b6000828402905082848281611d7557fe5b0414611dcc576040517f08c379a000000000000000000000000000000000000000000000000000000000815260040180806020018281038252602181526020018061207a6021913960400191505060405180910390fd5b809150505b92915050565b6000611e1983836040518060400160405280601a81526020017f536166654d6174683a206469766973696f6e206279207a65726f000000000000815250611ef3565b905092915050565b600080828401905083811015611e9f576040517f08c379a000000000000000000000000000000000000000000000000000000000815260040180806020018281038252601b8152602001807f536166654d6174683a206164646974696f6e206f766572666c6f77000000000081525060200191505060405180910390fd5b8091505092915050565b6000611eeb83836040518060400160405280601e81526020017f536166654d6174683a207375627472616374696f6e206f766572666c6f770000815250611fb9565b905092915050565b60008083118290611f9f576040517f08c379a00000000000000000000000000000000000000000000000000000000081526004018080602001828103825283818151815260200191508051906020019080838360005b83811015611f64578082015181840152602081019050611f49565b50505050905090810190601f168015611f915780820380516001836020036101000a031916815260200191505b509250505060405180910390fd5b506000838581611fab57fe5b049050809150509392505050565b6000838311158290612066576040517f08c379a00000000000000000000000000000000000000000000000000000000081526004018080602001828103825283818151815260200191508051906020019080838360005b8381101561202b578082015181840152602081019050612010565b50505050905090810190601f1680156120585780820380516001836020036101000a031916815260200191505b509250505060405180910390fd5b506000838503905080915050939250505056fe536166654d6174683a206d756c7469706c69636174696f6e206f766572666c6f77a265627a7a7231582010df37d21e41709eafe8d15707683494a9b5912a32a98fee06463b6978b1271c64736f6c634300050c0032",
  "source": "pragma solidity ^0.5.12;\n\n/**\n__                  _    _\n/ _\\_ __   __ _ _ __| | _| | ___\n\\ \\| '_ \\ / _` | '__| |/ / |/ _ \\\n_\\ \\ |_) | (_| | |  |   <| |  __/\n\\__/ .__/ \\__,_|_|  |_|\\_\\_|\\___|\n  |_|\n\n\nSparkle is the world's first redistributive currency.\n\nSparkle! offers an alternative to economies based on income inequality by\ncreating a currency that proportionally redistributes two percent of every\ntransaction to each person in the economy.\n\nPut simply: When the rich spend, the poor receive a share.\n\nSparkle is minted via an anti-speculative system whereby the smart contract\nmaintains a stable buy price of 1 ETH = 9700 SPRK and sell price of\n10000 SPRK = .97 ETH until 400,000,000 SPRK have been minted.\n\nOnce 400 million Sparkle are in circulation, the buy function of this contract\nis disabled and no more SPRK will be minted until supply drops below the\nthreshold. The sell function remains active to preserve a minimum value of\n10,000 SPRK equals .97 ETH.\n\nEveryone can mint Sparkle! by sending ETH to this contract.\n\nEveryone can earn ETH by selling Sparkle! to this contract.\n\nEveryone starts with free Sparkle!: by entering into the economy of Sparkle!\nyou will automatically receive your share of the transaction taxes collected.\n\nSparkle! is an activist experiment created by Micah White and released on\nSeptember 17, 2019 to commemorate the eighth anniversary of Occupy Wall Street.\n\nSPARKLE! IS:\n\n Autonomous  Sparkle! has no kill switch or pause function.\n\n Adversarial  Sparkle! is an act of protest that offers an alternative.\n\n Experimental  Sparkle! tests new economic laws that could form the basis for\n                 an activist society.\n\n Anti-speculative  Sparkle! fights currency speculation and is backed by a\n                      verifiable reserve of ETH that guarantees as a\n                      minimum value.\n\n*/\n\nimport \"./lib/ERC20Detailed.sol\";\nimport \"./lib/SafeMath.sol\";\n\ncontract Sparkle is ERC20Detailed {\n\n    using SafeMath for uint256;\n    mapping (address => uint256) private _balances;\n    mapping (address => mapping (address => uint256)) private _allowed;\n\n    event SparkleRedistribution(address from, uint amount);\n    event Mint(address to, uint amount);\n    event Sell(address from, uint amount);\n\n    uint256 public constant MAX_SUPPLY = 400000000 * 10 ** 18; // 40000 ETH of Sparkle\n    uint256 public constant PERCENT = 100; // 100%\n    uint256 public constant TAX = 2; // 2%\n    uint256 public constant COST_PER_TOKEN = 1e14; // 1 Sparkle = .0001 ETH\n    address payable creator = 0x4C3cC1D2229CBD17D26ec984F2E1b9bD336cBf69;\n\n    uint256 private _tobinsCollected;\n    uint256 private _totalSupply;\n    mapping (address => uint256) private _tobinsClaimed; // Internal accounting\n\n    constructor() public ERC20Detailed(\"Sparkle!\", \"SPRK\", 18) {}\n\n    function totalSupply() public view returns (uint256) {\n        return _totalSupply;\n    }\n\n    function tobinsCollected() public view returns (uint256) {\n        return _tobinsCollected;\n    }\n\n    function balanceOf(address owner) public view returns (uint256) {\n        if (_totalSupply == 0) return 0;\n\n        uint256 unclaimed = _tobinsCollected.sub(_tobinsClaimed[owner]);\n        uint256 floatingSupply = _totalSupply.sub(_tobinsCollected);\n        uint256 redistribution = _balances[owner].mul(unclaimed).div(floatingSupply);\n\n        return _balances[owner].add(redistribution);\n    }\n\n    function allowance(address owner, address spender) public view returns (uint256) {\n        return _allowed[owner][spender];\n    }\n\n    function transfer(address to, uint256 value) public returns (bool) {\n        require(to != address(0));\n\n        uint256 taxAmount = value.mul(TAX).div(PERCENT);\n\n        _balances[msg.sender] = balanceOf(msg.sender).sub(value).sub(taxAmount);\n        _balances[to] = balanceOf(to).add(value);\n\n        _tobinsClaimed[msg.sender] = _tobinsCollected;\n        _tobinsClaimed[to] = _tobinsCollected;\n        _tobinsCollected = _tobinsCollected.add(taxAmount);\n\n        emit Transfer(msg.sender, to, value);\n        emit SparkleRedistribution(msg.sender, taxAmount);\n\n        return true;\n    }\n\n    function transferFrom(address from, address to, uint256 value) public returns (bool) {\n        require(value <= _allowed[from][msg.sender]);\n        require(to != address(0));\n\n        uint256 taxAmount = value.mul(TAX).div(PERCENT);\n\n        _balances[from] = balanceOf(from).sub(value).sub(taxAmount);\n        _balances[to] = balanceOf(to).add(value);\n\n        _tobinsClaimed[from] = _tobinsCollected;\n        _tobinsClaimed[to] = _tobinsCollected;\n        _tobinsCollected = _tobinsCollected.add(taxAmount);\n\n        _allowed[from][msg.sender] = _allowed[from][msg.sender].sub(value);\n\n        emit Transfer(from, to, value);\n        emit SparkleRedistribution(from, taxAmount);\n\n        return true;\n    }\n\n    function approve(address spender, uint256 value) public returns (bool) {\n        require(spender != address(0));\n        _allowed[msg.sender][spender] = value;\n        emit Approval(msg.sender, spender, value);\n        return true;\n    }\n\n    function increaseAllowance(address spender, uint256 addedValue) public returns (bool) {\n        require(spender != address(0));\n        _allowed[msg.sender][spender] = (_allowed[msg.sender][spender].add(addedValue));\n        emit Approval(msg.sender, spender, _allowed[msg.sender][spender]);\n        return true;\n    }\n\n    function decreaseAllowance(address spender, uint256 subtractedValue) public returns (bool) {\n        require(spender != address(0));\n        _allowed[msg.sender][spender] = (_allowed[msg.sender][spender].sub(subtractedValue));\n        emit Approval(msg.sender, spender, _allowed[msg.sender][spender]);\n        return true;\n    }\n\n    function () external payable {\n        mintSparkle();\n    }\n\n    function mintSparkle() public payable returns (bool) {\n        uint256 amount = msg.value.mul(10 ** 18).div(COST_PER_TOKEN);\n        require(_totalSupply.add(amount) <= MAX_SUPPLY);\n\n        uint256 taxAmount = amount.mul(TAX).div(PERCENT);\n        uint256 creatorAmount = amount.mul(1).div(PERCENT);\n        uint256 buyerAmount = amount.sub(taxAmount).sub(creatorAmount);\n\n        _balances[msg.sender] = balanceOf(msg.sender).add(buyerAmount);\n        _balances[creator]= balanceOf(creator).add(creatorAmount);\n\n        _totalSupply = _totalSupply.add(amount);\n\n        _tobinsClaimed[msg.sender] = _tobinsCollected;\n        _tobinsClaimed[creator] = _tobinsCollected;\n        _tobinsCollected = _tobinsCollected.add(taxAmount);\n\n        emit Mint(msg.sender, buyerAmount);\n        emit SparkleRedistribution(msg.sender, taxAmount);\n\n        return true;\n    }\n\n    function sellSparkle(uint256 amount) public returns (bool) {\n        require(amount > 0 && balanceOf(msg.sender) >= amount);\n\n        uint256 reward = amount.mul(COST_PER_TOKEN).div(10 ** 18);\n\n        uint256 creatorAmount = reward.mul(3).div(PERCENT);\n        uint256 sellerAmount = reward.sub(creatorAmount);\n\n        _balances[msg.sender] = balanceOf(msg.sender).sub(amount);\n        _tobinsClaimed[msg.sender] = _tobinsCollected;\n\n        _totalSupply = _totalSupply.sub(amount);\n\n        creator.transfer(creatorAmount);\n        msg.sender.transfer(sellerAmount);\n\n        emit Sell(msg.sender, amount);\n\n        return true;\n    }\n\n\n}",
  "sourcePath": "/Users/rahul/Projects/Team-15/contracts/contracts/Sparkle.sol",
  "compiler": {
    "name": "solc",
    "version": "0.5.12+commit.7709ece9.Emscripten.clang"
  },
  "schemaVersion": "3.0.16",
  "updatedAt": "2019-10-17T12:34:20.922Z",
  "devdoc": {
    "methods": {
      "decimals()": {
        "details": "Returns the number of decimals used to get its user representation. For example, if `decimals` equals `2`, a balance of `505` tokens should be displayed to a user as `5,05` (`505 / 10 ** 2`).     * Tokens usually opt for a value of 18, imitating the relationship between Ether and Wei.     * NOTE: This information is only used for _display_ purposes: it in no way affects any of the arithmetic of the contract, including {IERC20-balanceOf} and {IERC20-transfer}."
      },
      "name()": {
        "details": "Returns the name of the token."
      },
      "symbol()": {
        "details": "Returns the symbol of the token, usually a shorter version of the name."
      }
    }
  },
  "userdoc": {
    "methods": {}
  }
}